:0C0000000C945B000C9400000C940000B9
:10000C000C9400000C9400000C9400000C94000064
:10001C000C9400000C9400000C9400000C94000054
:10002C000C9400000C9400000C9400000C94000044
:10003C000C9400000C9400000C9400000C94000034
:10004C000C9400000C9400000C9400000C94000024
:10005C000C9400000C9400000C9400000C94000014
:10006C000C9400000C9400000C9400000C94000004
:10007C000C9400000C9400000C9400000C940000F4
:10008C00000068656C6C6F5F776F726C640080C089
:10009C00020004008C000C0000058E000C000C0506
:1000AC008E00020018059A000000F894EE27ECBBB5
:1000BC00F1E0F5BFE5BFE0936C008DE0A2E0BB275B
:1000CC00ED938A95E9F780E090E1A0E0B1E0ED9343
:1000DC000197E9F7ECE9F0E085919591009761F0D3
:1000EC00A591B59105901590BF01F00105900D9269
:1000FC000197E1F7FB01F0CF8BBFEFEFEDBFE0E134
:10010C00EEBFC0E0D5E00C948B00E0E0E1BBECE38B
:10011C00E2BBA0E1A7D0A4EFB1E00E947401E0E043
:10012C00EA93A0E062D0A0E0B5E08BD0839B05C041
:10013C00E1E0F0E0E415F50531F4C0D0E1E0F0E0E9
:10014C002F01ACE146D0859B05C0E2E0F0E0E41560
:10015C00F50531F4B3D0E2E0F0E02F01A8E139D09D
:10016C00829B05C0E3E0F0E0E415F50559F4A6D058
:10017C00E3E0F0E02F01E0E0EA93A0E036D0ACE061
:10018C00B5E05FD0D3CFFFCFAA93E881E07111F037
:10019C00DB9A01C0DB98E881E07211F0DA9A01C0B9
:1001AC00DA98E881E07411F0D99A01C0D998E88105
:1001BC00E07811F0D89A01C0D8988DE08A95F1F7C3
:1001CC00DC9A8DE08A95F1F7DC988DE08A95F1F751
:1001DC0073C0AA93A881D8DFE881E295E883A8814F
:1001EC00D3DF85E88A95F1F767C0AA93E881F0E040
:1001FC00E85EFA4FE081A981AE0FEBDF7980688071
:10020C0022960895A2E05ED0ACE0E3DFA1E05AD0E4
:10021C00E0E06E2E7E2E0895AA93A881AA3011F0EC
:10022C00791448F0E0E0EA936394A62DDEDFA88110
:10023C00AA3009F441C07394DE9AA881CADFDE9813
:10024C003BC0BA93AA931A93A981BA81ED91A98361
:10025C00BA831E2FE03019F0A12FDEDFF5CF188105
:10026C0023960895AA93D39AD29AD19AD09AD49AD3
:10027C00D69AD59ADC98DE98DD989880E881E0587B
:10028C00E0931A05E881E054E0931B05A4E1B0E08B
:10029C000E9474011CD01BD01AD0A0E275DF88EC30
:1002AC0090E00197F1F7A8E294DFA4E092DFA5E8D3
:1002BC0090DFA6E08EDFA6DF21960895AAEFB0E0CE
:1002CC000C94740186DFA3E0B0E00C947401A0E3FD
:1002DC005BDF88EC90E00197F1F70895109639F008
:1002EC0080ED97E00197F1F7A8951197C9F708955C
:00000001FF
