:0E0000000C9446000C9400000C9400000C942C
:10000E0000000C9400000C9400000C9400000C9462
:10001E0000000C9400000C9400000C9400000C9452
:10002E0000000C9400000C9400000C9400000C9442
:10003E0000000C9400000C9400000C9400000C9432
:10004E0000000C9400000C9400000C9400000C9422
:10005E0000000C9400000C9400000C9400000C9412
:10006E0000000C9400000C9400000C9400000C9402
:10007E0000000C9400000C9400000C940000F89406
:10008E00EE27ECBBF1E0F5BFE5BFE0936C008DE031
:10009E00A2E0BB27ED938A95E9F780E090E1A0E01E
:1000AE00B1E0ED930197E9F78BBFEFEFEDBFE0E124
:1000BE00EEBFC0E0D5E00C946400E0E2E2B9E0E00F
:1000CE00E1BBE8E0E2BB839907C0AAEFB0E00E9473
:1000DE007500E3B1E095E3B9F6CFFFCF109639F096
:1000EE0080ED97E00197F1F7A8951197C9F708955C
:00000001FF
