:040000000C946800F4
:100004000C9400000C9400000C9400000C9400006C
:100014000C9400000C9400000C9400000C9400005C
:100024000C9400000C9400000C9400000C9400004C
:100034000C9400000C9400000C9400000C9400003C
:100044000C9400000C9400000C9400000C9400002C
:100054000C9400000C9400000C9400000C9400001C
:100064000C9400000C9400000C9400000C9400000C
:100074000C9400000C9400000C9400000C940000FC
:100084000C9400000C9400001027E80364000A009C
:10009400010000100001100001000000256400733D
:1000A4006F206E67756F693A200080C001002D4E85
:1000B400414E00494E460000020004009E0002002A
:1000C4001405AE0001001805B0000000F894EE27F6
:1000D400ECBBF1E0F5BFE5BFE0936C008DE0A2E07E
:1000E400BB27ED938A95E9F780E090E1A0E0B1E0C9
:1000F400ED930197E9F7ECEBF0E08591959100978A
:1001040061F0A591B59105901590BF01F00105909E
:100114000D920197E1F7FB01F0CF8BBFEFEFEDBF3D
:10012400E0E1EEBFC0E0D5E00C949800E0E0E1BB74
:10013400E8E2E2BBE0E2E2B91D9A83990BC085993B
:1001440008C0AAEFB0E00E949003F20131962F019B
:1001540001C0F5CF85990BC0839908C0AAEFB0E020
:100164000E949003F20131972F0101C0F5CF0024C2
:100174000414050424F0442455241D9A01C01D9838
:10018400A0E1A2D0E0E0EA93A0E04ED0E0E0F5E008
:10019400FA93EA93E0EAF0E0FA93EA93F2010E9418
:1001A400A2030E94AF0384E00E9409032896A3EAF5
:1001B400B0E077D0EAE0EA93A0E036D0A0E0B5E082
:1001C40061D0BBCFFFCFAA93E881E07111F0DB9A35
:1001D40001C0DB98E881E07211F0DA9A01C0DA9884
:1001E400E881E07411F0D99A01C0D998E881E078E7
:1001F40011F0D89A01C0D8988DE08A95F1F7DC9A6D
:100204008DE08A95F1F7DC988DE08A95F1F789C045
:10021400AA93A881D8DFE881E295E883A881D3DF97
:1002240085E88A95F1F77DC0AA93E881F0E0EC5E59
:10023400FA4FE081A981AE0FEBDF798068802296C6
:100244000895A2E00E945603ACE0E2DFA1E00E9420
:100254005603E0E06E2E7E2E0895AA93A881AA305C
:1002640011F0791448F0E0E0EA936394A62DDCDF02
:10027400A881AA3009F455C07394DE9AA881C8DF16
:10028400DE984FC0BA93AA931A93A981BA81ED91CB
:10029400A983BA831E2FE03019F0A12FDEDFF5CF3A
:1002A40010C0BA93AA931A93E981FA813196E9832B
:1002B400FA833197E4911E2FE03019F0A12FCDDF9E
:1002C400F3CF188123960895AA93D39AD29AD19AF8
:1002D400D09AD49AD69AD59ADC98DE98DD989880EC
:1002E400E881E058E0931605E881E054E0931705AF
:1002F400A4E1B0E00E9490030E945C030E945C03AE
:100304000E945C03A0E25FDF88EC90E00197F1F7C4
:10031400A8E27EDFA4E07CDFA5E87ADFA6E078DF50
:1003240090DF21960895BA93AA931A930A93AA8107
:10033400BB8112960E94A703309759F1AA81BB8111
:1003440014960E94A7038F01309761F00230E0E019
:100354001E0798F0F80131978F01AA81BB8114968A
:10036400ED93FC93AA81BB811296ED91FD91319698
:10037400FE93EE933197AC81A083AA81BB810E9446
:10038400A703FF232AF0ED91FD913196FE93EE939E
:1003940006C0AA81BB81EFEFFFEFED93FC931981B7
:1003A400088125960895BA93AA9326970E94B403C8
:1003B40010E0AC85BD85E0E0F0E0ED93FC93EA89C4
:1003C400FB893196EA8BFB8B3197E4912E2FE03039
:1003D40009F415C1E12FE03039F4253211F411E0AC
:1003E40002C00E9464030AC1E130A9F4253219F461
:1003F4000E94640302C112E040E000E02D3211F4D7
:1004040001E0FCC02B3211F44BE2F8C0203211F4AD
:1004140040E2F4C002C0E23039F450E013E020338B
:1004240011F40068EBC003C0E33009F0E7C02033E7
:1004340010F02A3308F007C0AAE05A9F502DE22F8B
:10044400E0535E0FDBC0E22FE33649F40E946B03F6
:10045400E889F989A481AA930E947103CEC0E33785
:1004640041F40E946B030E9477030E943D031E2FF8
:100474000AC0E03761F40E946B030E9477030E9474
:1004840049031E2F086002600F7730E034C0E43661
:1004940011F0E93611F4046002C0E53731F4ECE8F8
:1004A400F0E0EE83FF8315E00CC0E83511F408603A
:1004B40003C0E83709F0A1C0E6E9F0E0EE83FF836A
:1004C40014E002FF14C00E946B030E948103AB85F9
:1004D400AA233AF4EA85FB850E949E03EA87FB87F8
:1004E4004DE2403011F01F5F01C00B7F04C00E9439
:1004F4006B030E94810300FD11C0151778F407FFF8
:1005040008C002FF04C00B7F242F115001C020E358
:1005140001C020E20E9464035150EFCF312F01FF4C
:1005240017C03030A1F003FF06C0EE81FF81259192
:10053400EE83FF8305C0AE81BF812D91AE83BF835F
:100544000E946403503009F051503150EACF4BC03F
:1005540020E3EE81FF810E94AB03E887F987EE81F7
:10056400FF813296EE83FF83E885F985AA85BB85F2
:10057400AE17BF0750F02F5FA885B985EA85FB85C4
:10058400EA1BFB0BEA87FB87EFCF2A3328F003FF34
:1005940002C0295F01C0295D04FD1AC0213320F483
:1005A400A885B985119709F409C0531710F000FF05
:1005B40001C013C020E207FF0BC020E3006102FF6B
:1005C40007C00B7F4A930E947103503009F05150C9
:1005D4000E946403503009F051503150A885B98508
:1005E400129708F0B5CF00FF08C0503031F05150D9
:1005F400E0E2EA930E947103F8CF10E0E0CEAC850C
:10060400BD850E94A7030E94BB0364960895FF92D0
:10061400F82E26970E94B6030E948903309719F496
:10062400EFEFFFEF23C0DE0116960E949A038D01BF
:100634000E948903EE83FF83E0E0E887E987DE0117
:100644001A960E949A030E94A703FA93EA931A93B4
:100654000A93E5E9F1E0FA93EA93DE011A96A3DE40
:100664009F01AE81BF81E0E0EC93F9010E94BD03DC
:100674002A96FF900895BA93AA93A991B991EE2767
:10068400FF276D91662311F03196FBCF0895BA933D
:10069400AA93AA27BB27E991F9910590002011F0AC
:1006A4001196FBCFFD0108950E940A01A3E0B0E07A
:1006B4000C949003A0E30E94E50088EC90E001977D
:1006C400F1F708952A93AD85BE85EF85F8890995DC
:1006D4000895E889F9893497E88BF98B0895AD85F5
:1006E400BE85EF85F88909950895A889B989149676
:1006F4000E94A703EE83FF83AE81BF810895A8897A
:10070400B98914960E94A703EA87FB870895DE013E
:100714001C960E949A030E94A7030895109639F02C
:1007240080ED97E00197F1F7A8951197C9F708951F
:100734000024AF0DB01D0895F195E195F0400895A2
:100744006F2F660F660B762F0895ED91FC9111972C
:1007540008950590F491E02D08957A936A93FA939D
:10076400EA9308955A934A933A932A931A930A93CD
:1007740008955D814C813B812A8119810881089506
:00000001FF
