:0C0000000C944B000C9400000C940000C9
:10000C000C9400000C9400000C9400000C94000064
:10001C000C9400000C9400000C9400000C94000054
:10002C000C9400000C9400000C9400000C94000044
:10003C000C9400000C947B000C9400000C940000B9
:10004C000C9400000C9400000C9400000C94000024
:10005C000C9400000C9400000C9400000C94000014
:10006C000C9400000C9400000C9400000C94000004
:10007C000C9400000C9400000C9400000C940000F4
:10008C000000010005008C000000F894EE27ECBB8A
:10009C00F1E0F5BFE5BFE0936C008DE0A2E0BB277B
:1000AC00ED938A95E9F780E090E1A0E0B1E0ED9363
:1000BC000197E9F7EEE8F0E085919591009761F0F2
:1000CC00A591B59105901590BF01F00105900D9289
:1000DC000197E1F7FB01F0CF8BBFEFEFEDBFE0E154
:1000EC00EEBFC0E0D5E00C949100EA93EFB7EA9331
:1000FC00E2EBE2BFE1E0E51551F44394E4E6E415EC
:10010C0009F41D98E8ECE41511F41D9A4424E991C6
:10011C00EFBFE9911895E0E2E2B9E0E0E1BBE0E283
:10012C00E3B9ECE2E2BBE0E0E0BFE7E0E3BFE2EB27
:10013C00E2BFE0E0E1BFE1E0E7BFE0E0E0937D009B
:10014C007894839903C00ED01D985524859903C0CB
:10015C0009D01D9A5524829903C004D0E1E05E2E8B
:10016C00F0CFFFCFAAEFB0E00C94BC00109639F0A2
:10017C0080ED97E00197F1F7A8951197C9F70895CD
:00000001FF
