:0A0000000C9452010C9400000C94C3
:10000A0000000C9400000C9400000C9400000C9466
:10001A0000000C9400000C9400000C9400000C9456
:10002A0000000C9400000C9400000C9400000C9446
:10003A0000000C9400000C9400000C9400000C9436
:10004A0000000C9400000C9400000C9400000C9426
:10005A0000000C9400000C9400000C9400000C9416
:10006A0000000C9400000C9400000C9400000C9406
:10007A0000000C9400000C9400000C9400000C94F6
:10008A0000000507206000000000000000040A04C8
:10009A000007000700147F147F14242A7F2A1223E2
:1000AA001308646236495522500005030000001CFB
:1000BA002241000041221C00082A1C2A0808083E86
:1000CA00080800503000000808080808003030000E
:1000DA000020100804023E5149453E00427F40007C
:1000EA0042615149462141454B311814127F10276C
:1000FA00454545393C4A49493001710905033649A4
:10010A00494936064949291E003636000000563646
:10011A000000000814224114141414144122140873
:10012A00000201510906324979413E7E1111117EC0
:10013A007F494949363E414141227F4141221C7F44
:10014A00494949417F090901013E414151327F082C
:10015A0008087F00417F41002040413F017F081489
:10016A0022417F404040407F0204027F7F04081002
:10017A007F3E4141413E7F090909063E4151215EC8
:10018A007F09192946464949493101017F01013F41
:10019A004040403F1F2040201F7F2018207F6314CB
:1001AA000814630304780403615149454300007F3E
:1001BA004141020408102041417F0000040201026B
:1001CA000440404040400001020400205454547846
:1001DA007F484444383844444420384444487F38AB
:1001EA0054545418087E090102081454543C7F08D8
:1001FA0004047800447D40002040443D00007F1004
:10020A00284400417F40007C041804787C080404D8
:10021A007838444444387C14141408081414187C9C
:10022A007C080404084854545420043F4440203CA9
:10023A004040207C1C2040201C3C4030403C44284C
:10024A001028440C5050503C4464544C4400083626
:10025A00410000007F00000041360800020102044C
:10026A00027F4141417F000103070F1F3F7FFF00CB
:10027A001027E80364000A000100001000011000C2
:10028A0001002564200001002D4E414E00494E46D2
:10029A0000000100210790020000F894EE27ECBB51
:1002AA00F1E0F5BFE5BFE0936C008DE0A2E0BB276B
:1002BA00ED938A95E9F780E090E1A0E0B1E0ED9353
:1002CA000197E9F7ECE9F2E085919591009761F0E1
:1002DA00A591B59105901590BF01F00105900D9279
:1002EA000197E1F7FB01F0CF8BBFEFEFEDBFE0E144
:1002FA00EEBFC0E0D5E00C948F01AA93E881E7B97C
:10030A008BE18A95F1F7369A349BFECF349AE4B1A1
:10031A00F5B16FC12897ECE8F0E0E883F983EE8144
:10032A00EC7FE260EE83E37EE061EE83EF81E078CA
:10033A00EC63EF83DE01B8D0E0E2E1BBE0E0E2BBD0
:10034A00E0E2E7BBE0E0E8BBE7B9E3E8E6B9E0E012
:10035A00E0BDA0E0D2DF2F01EDE1F5E0FA93EA93E8
:10036A00ECE8F2E0FA93EA93F201662777270E9413
:10037A00810984E00E94DA072896EAE0EA93EA9380
:10038A00ADE1B5E00E944506AAEFB0E00E944F0930
:10039A00ECEBF2E0E415F50510F0959A01C095989A
:1003AA00AAEFB0E00E944F09B29B02C0979A01C01F
:1003BA009798CFCFFFCF0895AA931A93E09165003B
:1003CA00EF7EE093650018E0F6DFE981E07821F03E
:1003DA00E0916500E26003C0E0916500ED7FE09383
:1003EA006500E981EE0FE983E6DFE0916500E460EC
:1003FA00E0936500E0DFE0916500EB7FE093650044
:10040A00115011F7E0916500E061E09365001881F1
:10041A0042C0AA93E0916500EE7FE0936500A8814F
:10042A00CBDFE7C0AA93E0916500E160E093650045
:10043A00A881C2DFDEC0AA931A93E981E695E69500
:10044A00E6951E2FE4E5E19FF001DF01EA81F0E085
:10045A00EA0FFB1FE0932705F0932805E12F188187
:10046A0023960895AA93E981E068AE2FD2DFE98145
:10047A00EA93A981E0DFE064AE2FCBDF0CC0AA9338
:10048A00E981EA93A981EEDFE0912705F091280539
:10049A00E75DFA4FE08122960895AA930E94A80880
:1004AA00A881A083BFDFA5C0BA93AA930E94A90915
:1004BA00E0916400E0610E94B308E061E0936500A6
:1004CA00E0916400E4600E94B308EB7FE09365006A
:1004DA00E0916400E260E0936400E0916400E1600E
:1004EA00E0936400E0916400E8600E94B308E77F4B
:1004FA00E0936500AAE0B0E00E944F09E091650030
:10050A00E860E0936500EC81FD81309721F1E68196
:10051A00E3701E2FEC81FD81E681E695E695E77092
:10052A000E2FEC81FD81E781EF773E2FAC81BD81F3
:10053A000E947909E0930405F093050512960E943A
:10054A007909E0931905F0931A05AC81BD811496D7
:10055A000E9479090DC010E003E032E3E0E0F0E028
:10056A00E0930405F0930505E0931905F0931A0545
:10057A00E0931B05F0931C05A1E24BDFE12FE46039
:10058A00AE2F47DFE02FE061AE2F43DFE32FE068B5
:10059A00AE2F3FDFA0E23DDFA1E022D0E1E0E09311
:1005AA000005E0E0E0930105E1E0E0930605E09351
:1005BA000705E0930805EFEFE0930905E1E0E09312
:1005CA001005E1E1F5E0FA93EA93EFEFEA93A8E088
:1005DA00B0E00E940E080FD0E1E00E94B00960C0AE
:1005EA00AA93E881E03011F0ECE001C0E8E0AE2F18
:1005FA0010DF219608950E94A90930E0E0910105D3
:10060A00E03009F03FEFE0E0EA93A0E02BDF08EFEB
:10061A0011E0F80101501040309719F0A32F3DDF87
:10062A00F8CFE0E0EA93A0E040D30E94B0090C942E
:10063A00A608AA931A93ED81EA93AD8120DF1E2FB3
:10064A00E981E73011F0E83039F4EB81EA93AA81C5
:10065A000E944208EB8308C0E33021F4EB81E09565
:10066A00EB8302C0E03021F4EA81E0951E2302C048
:10067A00E23029F4EA81AB81EA231E2B0EC0E13075
:10068A0029F4EA81AB81EA231E2707C0E43029F462
:10069A00EA81E095AB81EA2B1E23A12FFEDE1881A9
:1006AA0026960895AA9323970E94A709A889A43594
:1006BA0048F4AF85A03330F4AE85A03019F0AD858B
:1006CA00A03009F4CCC1EE85E887A889BB27EE855E
:1006DA00F0E0AE0FBF1FA535E0E0BE0720F0A88905
:1006EA00E4E5EA1BEE872D85AF85BB27ED85F0E0B3
:1006FA00AE0FBF1FD19720F0AF85E0E3EA1BED876D
:10070A00A985A63009F05BC0EC85E13009F4A7C1E0
:10071A00E33039F4E0911B05F0911C05309709F498
:10072A009EC10885ED85E695E695E6953E2FE22F72
:10073A00E77019F4AD852A17E9F0A02FBB27E32F3C
:10074A00F0E00E947109AA85BB850E94B808269527
:10075A0026952695532F5F935F5FE22FAF91EA1795
:10076A0048F0102FE12F1150E03019F00E94BD0817
:10077A00F9CFF1CFAE850A1711F1EE85AA85BB85AF
:10078A00F0E00E94B808ED85E77009F03F5F20E0CD
:10079A002F932F5FE32FAF91AE1788F41E851F9317
:1007AA001F5FE02FAF91AE1718F40E94BD08F7CF74
:1007BA00EE85AE81BF81F0E00E94B808E9CFEF85EF
:1007CA00E7703E2FED85E03009F449C1EA85FB85E3
:1007DA00EE83FF8310E00889303009F063C0AD85ED
:1007EA00A83008F45AC0E985E03011F0E33009F482
:1007FA0002C0E73009F402C0E83009F402C0E93067
:10080A0009F402C0EA3021F40A93A8892BDE04C055
:10081A00E63011F40E94CA081F931F5FEE85AF915C
:10082A00AE17A0F5A985A63051F40E94CE08FA9316
:10083A00EA930E94A808A0810E94890826C0E98537
:10084A00E93011F450E00EC0EA3011F45FEF0AC04B
:10085A000E94CE080E94D7085E2FE985E73011F082
:10086A00E83021F40E94DD085E2F06C0E33011F45F
:10087A00509502C0E03019F4A52FD4DD06C00E94BD
:10088A00E108EFEFEA93AD85D4DEC6CFEF85E85FE6
:10089A00EF87ED85E850ED87D9C05D8520E0E0E07F
:1008AA00ED877EC0E32FAD85AE0FA93020F42D85EC
:1008BA00E0E0ED8703C0E8E0E31B2E2F3A93A22F76
:1008CA000E9437084E2FE985E63011F50E94CA08C2
:1008DA001F931F5FEE85AF91AE17C8F40E94A80858
:1008EA00E081E423AE2FE32F0E9469090E94E70802
:1008FA00E32FA42F0E946909E095E1215E2B0E9453
:10090A00CE08FA93EA93A52F0E948908E1CF2CC05A
:10091A00E93011F450E003C0EA30A9F45FEF0E9415
:10092A00DD08AE2FE32F0E9461095E2F1F931F5F20
:10093A00EE85AF91AE1730F40E94E1084A93A0E029
:10094A0078DEF4CF11C01F931F5FEE85AF91AE170B
:10095A0058F40E94F208AE2FE32F0E946109EA932D
:10096A004A93AD8566DEEFCFED85E03009F477C0B6
:10097A00AD85A83028F4ED85E21B5E2FE0E003C0C8
:10098A00532FED85E850ED8710E0EF85E85FEF879C
:10099A00E8E0E31B2E2F0889EA85FB85EE83FF83B7
:1009AA00E52FF0E0E059FD4F4491E985E63011F575
:1009BA000E94CA081F931F5FEE85AF91AE17C8F455
:1009CA000E94A808E081E423AE2FE22F0E94610969
:1009DA000E94E708E22FA42F0E946109E095E12115
:1009EA005E2B0E94CE08FA93EA93A52F0E948908EB
:1009FA00E1CF2CC0E93011F450E003C0EA30A9F489
:100A0A005FEF0E94DD08AE2FE22F0E9469095E2F78
:100A1A001F931F5FEE85AF91AE1730F40E94E10875
:100A2A004A93A0E006DEF4CF11C01F931F5FEE8544
:100A3A00AF91AE1758F40E94F208AE2FE22F0E942F
:100A4A006909EA934A93AD85F4DDEFCFE885AA8573
:100A5A00BB85F0E0EA0FFB1FEA87FB87B3CE0E9453
:100A6A00AE09619608950E94FF0824F0E0E0F0E0E4
:100A7A000C944008A881B981A435E0E0BE0724F0AF
:100A8A00E3E5F0E00C944008E881F9810C94400811
:100A9A000E94FF0824F0E0E0F0E00C944008A881EE
:100AAA00B981D09724F0EFE2F0E00C944008E88195
:100ABA00F9810C944008BA93AA9323970E940609D5
:100ACA008F01002E012A19F4E0E0F0E05FC00E94D5
:100ADA000D090F820E940D090E820E940D090886D7
:100AEA00EB85A885EA1718F4E0E0F0E04FC0F801BA
:100AFA000F5F1F4F5491A885BB27EE27A50FBE1F76
:100B0A00EB85F0E0EA17FB0718F0E0E0F0E03EC002
:100B1A00EE81E695E695E6954E2FEE81E77009F0AF
:100B2A004F5FEF81E030A1F0A985BA85EC93A885E3
:100B3A00EB85EA1BF0E0DF01EF81F0E00E9471092A
:100B4A00DF01E42FF0E00E947109E00FF11F1EC0DF
:100B5A009801E52FF0E00E0F1F1FA885AF5FA88749
:100B6A00A150EB85AE1760F4F9012F5F3F4FA491B6
:100B7A00B0E0E42FF0E00E9471090E0F1F1FEDCFC5
:100B8A00F901E491A985BA85EC93F8010E94AE09AE
:100B9A002C960895E0E0E0930205A0910305BB2797
:100BAA000E941209F0E0AE0FBF1FE0910705F0E0C6
:100BBA00AE0FBF1F6DDFE09303050895AA93219737
:100BCA000E940609309709F455C0AF81AA3009F48A
:100BDA004FC0EF81EA93DE0117966DDFAF013097C0
:100BEA0009F44AC0E0910605AE81EA0F3E2FA091B2
:100BFA000205BB27F0E0EA0FFB1F8F010535E0E095
:100C0A001E0718F0032F1127C5DFE0910205EA93AA
:100C1A00E0910305EA93E885EA930E941209EA93B0
:100C2A00E1E0EA935A934A93A7E03CDDE09102059A
:100C3A00AE81EA0FEA93E0910305EA93E091060593
:100C4A00EA930E9412090E941909E0910205EA93A7
:100C5A00A09103050E941209EA0FEA933A93E091E0
:100C6A0007050E941909E4E5F0E0E017F10711F41D
:100C7A0091DF02C0009302050E94AE0928960895EA
:100C8A00BA93AA931A93EC81EA93AC810ED0A98104
:100C9A00BA81ED91A983BA831E2FE03019F0A12FF2
:100CAA008DDFF5CF18810C941C08AA93A981BB2764
:100CBA00DADEE0930205A881BB27EADEE0930305AA
:100CCA000C944008BA93AA931A930A93AA81BB81F7
:100CDA0012960E947909309759F1AA81BB8114961C
:100CEA000E9479098F01309761F00230E0E01E0717
:100CFA0098F0F80131978F01AA81BB811496ED9380
:100D0A00FC93AA81BB811296ED91FD913196FE93D7
:100D1A00EE933197AC81A083AA81BB810E947909A5
:100D2A00FF232AF0ED91FD913196FE93EE9306C0D2
:100D3A00AA81BB81EFEFFFEFED93FC931981088144
:100D4A0076C1BA93AA9326970E94A70910E0AC85A8
:100D5A00BD85E0E0F0E0ED93FC93EA89FB893196EA
:100D6A00EA8BFB8B3197E4912E2FE03009F415C101
:100D7A00E12FE03039F4253211F411E002C00E946B
:100D8A0023090AC1E130A9F4253219F40E94230982
:100D9A0002C112E040E000E02D3211F401E0FCC093
:100DAA002B3211F44BE2F8C0203211F440E2F4C0C5
:100DBA0002C0E23039F450E013E0203311F4006845
:100DCA00EBC003C0E33009F0E7C0203310F02A3348
:100DDA0008F007C0AAE05A9F502DE22FE0535E0F99
:100DEA00DBC0E22FE33649F40E942A09E889F9892F
:100DFA00A481AA930E943009CEC0E33741F40E942D
:100E0A002A090E9436090E941E081E2F0AC0E037CE
:100E1A0061F40E942A090E9436090E942A081E2F9C
:100E2A00086002600F7730E034C0E43611F0E9362A
:100E3A0011F4046002C0E53731F4EAE7F2E0EE8328
:100E4A00FF8315E00CC0E83511F4086003C0E837E9
:100E5A0009F0A1C0E4E8F2E0EE83FF8314E002FFA8
:100E6A0014C00E942A090E944009AB85AA233AF4B9
:100E7A00EA85FB850E945D09EA87FB874DE24030DF
:100E8A0011F01F5F01C00B7F04C00E942A090E9453
:100E9A00400900FD11C0151778F407FF08C002FFCA
:100EAA0004C00B7F242F115001C020E301C020E2AF
:100EBA000E9423095150EFCF312F01FF17C0303064
:100ECA00A1F003FF06C0EE81FF812591EE83FF8327
:100EDA0005C0AE81BF812D91AE83BF830E942309D5
:100EEA00503009F051503150EACF4BC020E3EE8127
:100EFA00FF810E947D09E887F987EE81FF8132969A
:100F0A00EE83FF83E885F985AA85BB85AE17BF07FF
:100F1A0050F02F5FA885B985EA85FB85EA1BFB0B94
:100F2A00EA87FB87EFCF2A3328F003FF02C0295F45
:100F3A0001C0295D04FD1AC0213320F4A885B985B2
:100F4A00119709F409C0531710F000FF01C013C02C
:100F5A0020E207FF0BC020E3006102FF07C00B7FFE
:100F6A004A930E943009503009F051500E942309D7
:100F7A00503009F051503150A885B985129708F0C0
:100F8A00B5CF00FF08C0503031F05150E0E2EA938B
:100F9A000E943009F8CF10E0E0CEAC85BD850E94F2
:100FAA0079090E94AE0964960895FF92F82E269751
:100FBA000E94A9090E944809309719F4EFEFFFEF40
:100FCA0023C0DE0116960E9459098D010E94480924
:100FDA00EE83FF83E0E0E887E987DE011A960E9444
:100FEA0059090E947909FA93EA931A930A93E7E650
:100FFA00F6E0FA93EA93DE011A96A3DE9F01AE8128
:10100A00BF81E0E0EC93F9010E94B0092A96FF90B3
:10101A000895BA93AA93B981A881109631F0FC81F8
:10102A00EB816A8161931197E9F7EB81FC8125963F
:10103A000895BA93AA93A991B991EE27FF276D91C2
:10104A00662311F03196FBCF0895BA93AA93AA2783
:10105A00BB27E991F9910590002011F01196FBCF79
:10106A00FD010895AA93E881F0E0E059FD4FA491AB
:10107A00E9810E94610922960895AA931A93E98147
:10108A00E73011F0EA3019F41091000509C0E9308F
:10109A0019F41091010504C0E830A1F4109110056B
:1010AA00E0910105E03049F0103019F0EFEF1881B6
:1010BA0029C0EA81E095188125C0103019F4E0E0D2
:1010CA00188120C0EA8118811DC0BA93AA93EA81C7
:1010DA00E13021F4E881F981E49114C0E23029F485
:1010EA00A881B9810E9486090DC0E33041F4A88124
:1010FA00B981E0911905F0911A05099503C0A881F3
:10110A00B981EC9123960895AA93EB81E03029F4F2
:10111A00E881A981BA81EC9314C0E23031F4E88104
:10112A00A981BA810E9492090CC0E33051F4E98185
:10113A00FA81FA93EA93AA81E0911B05F0911C05C2
:10114A00099524960895A7E2B5E0ED91FD913196AF
:10115A00FE93EE933197E75DFA4F0895E0936400AA
:10116A00E09165000895EA0FFB1FEE83FF8308955F
:10117A00EC85EA93EF81F8853196EF83F88731970A
:10118A00FA93EA93A0E00C9489080A93A8890C942C
:10119A002002EC85EA93EF81F8853196EF83F88790
:1011AA003197089566277727DF01CB010C946A08E7
:1011BA005A93AA850C9442080A930395E889EA93FC
:1011CA005A9308955E2FEC85EA93AF81B8858827F4
:1011DA0099270E946A081E2E08950A930395E889A2
:1011EA00EA93EE85EA93E985FA853196E987FA87E3
:1011FA003197D8CFBA93AA93A881B9810E94A3093B
:10120A0008950E94A709E0910405F0910505089543
:10121A00F8010F5F1F4F04900895E0910405F091C3
:10122A0005053196E4910895EA93E0E0EA93E0E057
:10123A00F0E0FA93EA93A9E00C9457032A93AD8558
:10124A00BE85EF85F88909950895E889F989349763
:10125A00E88BF98B0895AD85BE85EF85F8890995E8
:10126A000895A889B98914960E947909EE83FF83A3
:10127A00AE81BF810895A889B98914960E94790917
:10128A00EA87FB870895DE011C960E9459090E948D
:10129A0079090895109639F080ED97E00197F1F7F2
:1012AA00A8951197C9F708950024AF0DB01D0895A8
:1012BA00F195E195F0400895EE230E2EEA2F19F0EC
:1012CA00EE0F0A94E9F70895EE230E2EEA2F19F08D
:1012DA00E6950A94E9F70895FA9FF02DEB9FF00D31
:1012EA00EA9FE02DF10D0895ED91FC911197089573
:1012FA000590F491E02D08957A936A93FA93EA930C
:10130A000895E199FECFFF93FFB7F894AEBBBFBB38
:10131A00E09AEDB3FFBFFF910895E19B02C0A89543
:10132A00FCCF9FB7F894AEBBBFBBE09A8DB3E8176A
:10133A0019F0EDBBE29AE19A9FBF089500240A16BC
:10134A000B0608955A934A933A932A931A930A9347
:10135A0008955D814C813B812A8119810881089514
:00000001FF
