:0C0000000C9468000C9400000C940000AC
:10000C000C9400000C9400000C9400000C94000064
:10001C000C9400000C9400000C9400000C94000054
:10002C000C9400000C9400000C9400000C94000044
:10003C000C9400000C9400000C9400000C94000034
:10004C000C9400000C9400000C9400000C94000024
:10005C000C9400000C9400000C9400000C94000014
:10006C000C9400000C9400000C9400000C94000004
:10007C000C9400000C9400000C9400000C940000F4
:10008C001027E80364000A000100001000011000B2
:10009C000100444F20414D202575004E48494554E0
:1000AC0020444F202575000080C001002D4E414E8C
:1000BC0000494E46000002001005B4000100140572
:1000CC00B6000000F894EE27ECBBF1E0F5BFE5BFFD
:1000DC00E0936C008DE0A2E0BB27ED938A95E9F7E5
:1000EC0080E090E1A0E0B1E0ED930197E9F7E2EC5C
:1000FC00F0E085919591009761F0A591B5910590EF
:10010C001590BF01F00105900D920197E1F7FB01ED
:10011C00F0CF8BBFEFEFEDBFE0E1EEBFC0E0D5E07D
:10012C000C94FE00BA93AA932597E0E0E883E98348
:10013C00EA83EB83EC830E940204BF9AC7988BE698
:10014C008A95F1F7C79AAEE1B0E00E94D903C79A3D
:10015C00BF988BE68A95F1F7B79B02C0E0E044C0EC
:10016C00B79BFECF8BE68A95F1F7B79902C0E0E01A
:10017C003BC0B799FECF00E0053000F510E0183019
:10018C00D8F4B79BFECF80E58A95F1F7B79B12C0E8
:10019C00E02FF0E0DE011496EA0FFB1FBF01108088
:1001AC00E7E0E11BA1E00E94EB03E129DB01EC930A
:1001BC00B799FECF1F5FE3CF0F5FDECFED81AC8130
:1001CC00EA0FAE81EA0FAF81EA0F3E2FE885E31705
:1001DC0011F0E0E009C0EE81AB85BC85EC93EC81BD
:1001EC00A985BA85EC93E1E00E9409042D96089547
:1001FC00E0E8E1BBE2BBA0E198D0E5E0F0E0FA93E7
:10020C00EA93A4E0B0E08EDFE030E9F05CD0E0E00F
:10021C00EA93A0E00E948B03EEE9F0E0FA93EA93F4
:10022C00E42D0E949203E0E0EA93A1E00E948B038C
:10023C00E7EAF0E0FA93EA93E52D0E949203ACE230
:10024C00B1E00E94D903D9CFFFCFAA93E881E07126
:10025C0011F0DB9A01C0DB98E881E07211F0DC9AB6
:10026C0001C0DC98E881E07411F0DD9A01C0DD98E2
:10027C00E881E07811F0DE9A01C0DE988DE08A9575
:10028C00F1F7DA9A8DE08A95F1F7DA988DE08A9594
:10029C00F1F778C0AA93A881D8DFE881E295E883CA
:1002AC00A881D3DF85E88A95F1F76CC0AA93E88121
:1002BC00F0E0E05FFA4FE081A981AE0FEBDF7980CF
:1002CC00688022960895A2E00E949F03ACE0E2DFD2
:1002DC00A1E00E949F03E0E06E2E7E2E0895AA936B
:1002EC00A881AA3011F0791448F0E0E0EA93639405
:1002FC00A62DDCDFA881AA3009F444C07394D89AE7
:10030C00A881C8DFD8983EC0BA93AA931A93A98142
:10031C00BA81ED91A983BA831E2FE03019F0A12F79
:10032C00DEDFF5CF188123960895AA93D39AD49A39
:10033C00D59AD69AD29AD09AD19ADA98D898D9983E
:10034C009880E881E058E0931205E881E054E0934E
:10035C001305A4E1B0E00E94D9030E94A5030E94FA
:10036C00A5030E94A503A0E270DF88EC90E0019742
:10037C00F1F7A8E28FDFA4E08DDFA5E88BDFA6E024
:10038C0089DFA1DF21960895BA93AA931A930A9351
:10039C00AA81BB8112960E94F303309759F1AA816E
:1003AC00BB8114960E94F3038F01309761F00230E9
:1003BC00E0E01E0798F0F80131978F01AA81BB810C
:1003CC001496ED93FC93AA81BB811296ED91FD914D
:1003DC003196FE93EE933197AC81A083AA81BB81B9
:1003EC000E94F303FF232AF0ED91FD913196FE93C9
:1003FC00EE9306C0AA81BB81EFEFFFEFED93FC9368
:10040C001981088125960895BA93AA9326970E947C
:10041C00000410E0AC85BD85E0E0F0E0ED93FC93CA
:10042C00EA89FB893196EA8BFB8B3197E4912E2F6D
:10043C00E03009F415C1E12FE03039F4253211F424
:10044C0011E002C00E94AD030AC1E130A9F42532CB
:10045C0019F40E94AD0302C112E040E000E02D321D
:10046C0011F401E0FCC02B3211F44BE2F8C0203245
:10047C0011F440E2F4C002C0E23039F450E013E071
:10048C00203311F40068EBC003C0E33009F0E7C07F
:10049C00203310F02A3308F007C0AAE05A9F502DE1
:1004AC00E22FE0535E0FDBC0E22FE33649F40E94EB
:1004BC00B403E889F989A481AA930E94BA03CEC037
:1004CC00E33741F40E94B4030E94C0030E947203FC
:1004DC001E2F0AC0E03761F40E94B4030E94C003CF
:1004EC000E947E031E2F086002600F7730E034C03C
:1004FC00E43611F0E93611F4046002C0E53731F44A
:10050C00ECE8F0E0EE83FF8315E00CC0E83511F465
:10051C00086003C0E83709F0A1C0E6E9F0E0EE831B
:10052C00FF8314E002FF14C00E94B4030E94CA03AC
:10053C00AB85AA233AF4EA85FB850E94E703EA8798
:10054C00FB874DE2403011F01F5F01C00B7F04C0F0
:10055C000E94B4030E94CA0300FD11C0151778F461
:10056C0007FF08C002FF04C00B7F242F115001C0ED
:10057C0020E301C020E20E94AD035150EFCF312F98
:10058C0001FF17C03030A1F003FF06C0EE81FF81E0
:10059C002591EE83FF8305C0AE81BF812D91AE8383
:1005AC00BF830E94AD03503009F051503150EACF57
:1005BC004BC020E3EE81FF810E94F703E887F987A7
:1005CC00EE81FF813296EE83FF83E885F985AA855B
:1005DC00BB85AE17BF0750F02F5FA885B985EA859C
:1005EC00FB85EA1BFB0BEA87FB87EFCF2A3328F04E
:1005FC0003FF02C0295F01C0295D04FD1AC021332D
:10060C0020F4A885B985119709F409C0531710F087
:10061C0000FF01C013C020E207FF0BC020E3006104
:10062C0002FF07C00B7F4A930E94BA03503009F0B7
:10063C0051500E94AD03503009F051503150A885F3
:10064C00B985129708F0B5CF00FF08C0503031F0D3
:10065C005150E0E2EA930E94BA03F8CF10E0E0CEEA
:10066C00AC85BD850E94F3030E940704649608952F
:10067C00FF92F82E26970E9402040E94D203309714
:10068C0019F4EFEFFFEF23C0DE0116960E94E3038F
:10069C008D010E94D203EE83FF83E0E0E887E987B7
:1006AC00DE011A960E94E3030E94F303FA93EA9385
:1006BC001A930A93EAECF1E0FA93EA93DE011A96A4
:1006CC00A3DE9F01AE81BF81E0E0EC93F9010E94B3
:1006DC0009042A96FF900895BA93AA93A991B99107
:1006EC00EE27FF276D91662311F03196FBCF08950D
:1006FC00BA93AA93AA27BB27E991F99105900020F8
:10070C0011F01196FBCFFD0108950E945C01E0E011
:10071C00F5E0FA93EA930895FF27662777270E945E
:10072C00FB0384E00E943E032896A0E0B5E00C9405
:10073C008A010E945001A3E0B0E00C94D903A0E31D
:10074C000E942B0188EC90E00197F1F708952A9311
:10075C00AD85BE85EF85F88909950895E889F989F5
:10076C003497E88BF98B0895AD85BE85EF85F889B4
:10077C0009950895A889B98914960E94F303EE830C
:10078C00FF83AE81BF810895A889B98914960E9410
:10079C00F303EA87FB870895DE011C960E94E303AE
:1007AC000E94F3030895109639F080ED97E00197BD
:1007BC00F1F7A8951197C9F708950024AF0DB01D56
:1007CC000895F195E195F0400895EE230E2EEA2F51
:1007DC0019F0EE0F0A94E9F70895ED91FC91119739
:1007EC0008950590F491E02D08957A936A93FA9305
:1007FC00EA9308955A934A933A932A931A930A9335
:10080C0008955D814C813B812A811981088108956D
:00000001FF
